{
  "_format": "hh-sol-artifact-1",
  "contractName": "TrustlessVoting",
  "sourceName": "contracts/TrustlessVoting.sol",
  "abi": [
    {
      "anonymous": false,
      "inputs": [
        {
          "indexed": true,
          "internalType": "address",
          "name": "previousOwner",
          "type": "address"
        },
        {
          "indexed": true,
          "internalType": "address",
          "name": "newOwner",
          "type": "address"
        }
      ],
      "name": "OwnershipTransferred",
      "type": "event"
    },
    {
      "inputs": [],
      "name": "owner",
      "outputs": [
        {
          "internalType": "address",
          "name": "",
          "type": "address"
        }
      ],
      "stateMutability": "view",
      "type": "function"
    },
    {
      "inputs": [],
      "name": "renounceOwnership",
      "outputs": [],
      "stateMutability": "nonpayable",
      "type": "function"
    },
    {
      "inputs": [
        {
          "internalType": "uint256",
          "name": "maxOption",
          "type": "uint256"
        }
      ],
      "name": "results",
      "outputs": [
        {
          "internalType": "uint256[]",
          "name": "",
          "type": "uint256[]"
        }
      ],
      "stateMutability": "view",
      "type": "function"
    },
    {
      "inputs": [
        {
          "internalType": "address",
          "name": "newOwner",
          "type": "address"
        }
      ],
      "name": "transferOwnership",
      "outputs": [],
      "stateMutability": "nonpayable",
      "type": "function"
    },
    {
      "inputs": [
        {
          "internalType": "uint256",
          "name": "option",
          "type": "uint256"
        }
      ],
      "name": "vote",
      "outputs": [],
      "stateMutability": "nonpayable",
      "type": "function"
    },
    {
      "inputs": [
        {
          "internalType": "address",
          "name": "",
          "type": "address"
        }
      ],
      "name": "votes",
      "outputs": [
        {
          "internalType": "uint256",
          "name": "",
          "type": "uint256"
        }
      ],
      "stateMutability": "view",
      "type": "function"
    },
    {
      "inputs": [
        {
          "internalType": "uint256",
          "name": "",
          "type": "uint256"
        }
      ],
      "name": "votesCounter",
      "outputs": [
        {
          "internalType": "uint256",
          "name": "",
          "type": "uint256"
        }
      ],
      "stateMutability": "view",
      "type": "function"
    }
  ],
  "bytecode": "0x608060405234801561001057600080fd5b5061002d61002261003260201b60201c565b61003a60201b60201c565b6100fe565b600033905090565b60008060009054906101000a900473ffffffffffffffffffffffffffffffffffffffff169050816000806101000a81548173ffffffffffffffffffffffffffffffffffffffff021916908373ffffffffffffffffffffffffffffffffffffffff1602179055508173ffffffffffffffffffffffffffffffffffffffff168173ffffffffffffffffffffffffffffffffffffffff167f8be0079c531659141344cd1fd0a4f28419497f9722a3daafe3b4186f6b6457e060405160405180910390a35050565b610a768061010d6000396000f3fe608060405234801561001057600080fd5b506004361061007d5760003560e01c8063715018a61161005b578063715018a6146100fe5780638da5cb5b14610108578063d8bff5a514610126578063f2fde38b146101565761007d565b80630121b93f146100825780631b0c27da1461009e57806357522ab6146100ce575b600080fd5b61009c600480360381019061009791906105aa565b610172565b005b6100b860048036038101906100b391906105aa565b61027f565b6040516100c59190610695565b60405180910390f35b6100e860048036038101906100e391906105aa565b610335565b6040516100f591906106c6565b60405180910390f35b61010661034d565b005b610110610361565b60405161011d9190610722565b60405180910390f35b610140600480360381019061013b9190610769565b61038a565b60405161014d91906106c6565b60405180910390f35b610170600480360381019061016b9190610769565b6103a2565b005b600060026000610180610425565b73ffffffffffffffffffffffffffffffffffffffff1673ffffffffffffffffffffffffffffffffffffffff16815260200190815260200160002054146101fb576040517f08c379a00000000000000000000000000000000000000000000000000000000081526004016101f290610819565b60405180910390fd5b8060026000610208610425565b73ffffffffffffffffffffffffffffffffffffffff1673ffffffffffffffffffffffffffffffffffffffff168152602001908152602001600020819055506001806000838152602001908152602001600020546102659190610868565b600160008381526020019081526020016000208190555050565b606060008267ffffffffffffffff81111561029d5761029c61089c565b5b6040519080825280602002602001820160405280156102cb5781602001602082028036833780820191505090505b50905060005b8381101561032b57600160006001836102ea9190610868565b81526020019081526020016000205482828151811061030c5761030b6108cb565b5b6020026020010181815250508080610323906108fa565b9150506102d1565b5080915050919050565b60016020528060005260406000206000915090505481565b61035561042d565b61035f60006104ab565b565b60008060009054906101000a900473ffffffffffffffffffffffffffffffffffffffff16905090565b60026020528060005260406000206000915090505481565b6103aa61042d565b600073ffffffffffffffffffffffffffffffffffffffff168173ffffffffffffffffffffffffffffffffffffffff1603610419576040517f08c379a0000000000000000000000000000000000000000000000000000000008152600401610410906109b4565b60405180910390fd5b610422816104ab565b50565b600033905090565b610435610425565b73ffffffffffffffffffffffffffffffffffffffff16610453610361565b73ffffffffffffffffffffffffffffffffffffffff16146104a9576040517f08c379a00000000000000000000000000000000000000000000000000000000081526004016104a090610a20565b60405180910390fd5b565b60008060009054906101000a900473ffffffffffffffffffffffffffffffffffffffff169050816000806101000a81548173ffffffffffffffffffffffffffffffffffffffff021916908373ffffffffffffffffffffffffffffffffffffffff1602179055508173ffffffffffffffffffffffffffffffffffffffff168173ffffffffffffffffffffffffffffffffffffffff167f8be0079c531659141344cd1fd0a4f28419497f9722a3daafe3b4186f6b6457e060405160405180910390a35050565b600080fd5b6000819050919050565b61058781610574565b811461059257600080fd5b50565b6000813590506105a48161057e565b92915050565b6000602082840312156105c0576105bf61056f565b5b60006105ce84828501610595565b91505092915050565b600081519050919050565b600082825260208201905092915050565b6000819050602082019050919050565b61060c81610574565b82525050565b600061061e8383610603565b60208301905092915050565b6000602082019050919050565b6000610642826105d7565b61064c81856105e2565b9350610657836105f3565b8060005b8381101561068857815161066f8882610612565b975061067a8361062a565b92505060018101905061065b565b5085935050505092915050565b600060208201905081810360008301526106af8184610637565b905092915050565b6106c081610574565b82525050565b60006020820190506106db60008301846106b7565b92915050565b600073ffffffffffffffffffffffffffffffffffffffff82169050919050565b600061070c826106e1565b9050919050565b61071c81610701565b82525050565b60006020820190506107376000830184610713565b92915050565b61074681610701565b811461075157600080fd5b50565b6000813590506107638161073d565b92915050565b60006020828403121561077f5761077e61056f565b5b600061078d84828501610754565b91505092915050565b600082825260208201905092915050565b7f5468697320616464726573732068617320616c7265616479206265656e20766f60008201527f7465640000000000000000000000000000000000000000000000000000000000602082015250565b6000610803602383610796565b915061080e826107a7565b604082019050919050565b60006020820190508181036000830152610832816107f6565b9050919050565b7f4e487b7100000000000000000000000000000000000000000000000000000000600052601160045260246000fd5b600061087382610574565b915061087e83610574565b925082820190508082111561089657610895610839565b5b92915050565b7f4e487b7100000000000000000000000000000000000000000000000000000000600052604160045260246000fd5b7f4e487b7100000000000000000000000000000000000000000000000000000000600052603260045260246000fd5b600061090582610574565b91507fffffffffffffffffffffffffffffffffffffffffffffffffffffffffffffffff820361093757610936610839565b5b600182019050919050565b7f4f776e61626c653a206e6577206f776e657220697320746865207a65726f206160008201527f6464726573730000000000000000000000000000000000000000000000000000602082015250565b600061099e602683610796565b91506109a982610942565b604082019050919050565b600060208201905081810360008301526109cd81610991565b9050919050565b7f4f776e61626c653a2063616c6c6572206973206e6f7420746865206f776e6572600082015250565b6000610a0a602083610796565b9150610a15826109d4565b602082019050919050565b60006020820190508181036000830152610a39816109fd565b905091905056fea2646970667358221220cef1c20b61f7d7239cf644b803ed7199d428b053b91def2c9707a7d5baa64dfd64736f6c63430008110033",
  "linkReferences": {},
  "deployedLinkReferences": {}
}